{
  "contractName": "ShoneTokenSale",
  "abi": [
    {
      "inputs": [
        {
          "internalType": "contract ShoneToken",
          "name": "_tokenAddress",
          "type": "address"
        },
        {
          "internalType": "uint256",
          "name": "_tokenPrice",
          "type": "uint256"
        },
        {
          "internalType": "address payable",
          "name": "_admin",
          "type": "address"
        }
      ],
      "stateMutability": "nonpayable",
      "type": "constructor"
    },
    {
      "anonymous": false,
      "inputs": [
        {
          "indexed": false,
          "internalType": "address",
          "name": "_buyer",
          "type": "address"
        },
        {
          "indexed": false,
          "internalType": "uint256",
          "name": "_noTokens",
          "type": "uint256"
        }
      ],
      "name": "Sell",
      "type": "event"
    },
    {
      "inputs": [],
      "name": "tokenAddress",
      "outputs": [
        {
          "internalType": "contract ShoneToken",
          "name": "",
          "type": "address"
        }
      ],
      "stateMutability": "view",
      "type": "function",
      "constant": true
    },
    {
      "inputs": [],
      "name": "tokenPrice",
      "outputs": [
        {
          "internalType": "uint256",
          "name": "",
          "type": "uint256"
        }
      ],
      "stateMutability": "view",
      "type": "function",
      "constant": true
    },
    {
      "inputs": [],
      "name": "tokenSold",
      "outputs": [
        {
          "internalType": "uint256",
          "name": "",
          "type": "uint256"
        }
      ],
      "stateMutability": "view",
      "type": "function",
      "constant": true
    },
    {
      "inputs": [
        {
          "internalType": "uint256",
          "name": "_numOfToken",
          "type": "uint256"
        }
      ],
      "name": "buyToken",
      "outputs": [],
      "stateMutability": "payable",
      "type": "function",
      "payable": true
    },
    {
      "inputs": [],
      "name": "endSale",
      "outputs": [],
      "stateMutability": "nonpayable",
      "type": "function"
    }
  ],
  "bytecode": "0x60806040523480156200001157600080fd5b5060405162000ba438038062000ba48339818101604052810190620000379190620001c6565b80600360006101000a81548173ffffffffffffffffffffffffffffffffffffffff021916908373ffffffffffffffffffffffffffffffffffffffff160217905550826000806101000a81548173ffffffffffffffffffffffffffffffffffffffff021916908373ffffffffffffffffffffffffffffffffffffffff1602179055508160018190555050505062000222565b600080fd5b600073ffffffffffffffffffffffffffffffffffffffff82169050919050565b6000620000fa82620000cd565b9050919050565b60006200010e82620000ed565b9050919050565b620001208162000101565b81146200012c57600080fd5b50565b600081519050620001408162000115565b92915050565b6000819050919050565b6200015b8162000146565b81146200016757600080fd5b50565b6000815190506200017b8162000150565b92915050565b60006200018e82620000cd565b9050919050565b620001a08162000181565b8114620001ac57600080fd5b50565b600081519050620001c08162000195565b92915050565b600080600060608486031215620001e257620001e1620000c8565b5b6000620001f2868287016200012f565b935050602062000205868287016200016a565b92505060406200021886828701620001af565b9150509250925092565b61097280620002326000396000f3fe60806040526004361061004a5760003560e01c80632d296bf11461004f578063380d831b1461006b578063519ee19e146100825780637ff9b596146100ad5780639d76ea58146100d8575b600080fd5b610069600480360381019061006491906105b6565b610103565b005b34801561007757600080fd5b50610080610325565b005b34801561008e57600080fd5b50610097610514565b6040516100a491906105f2565b60405180910390f35b3480156100b957600080fd5b506100c261051a565b6040516100cf91906105f2565b60405180910390f35b3480156100e457600080fd5b506100ed610520565b6040516100fa919061068c565b60405180910390f35b61010f81600154610544565b341461011a57600080fd5b8060008054906101000a900473ffffffffffffffffffffffffffffffffffffffff1673ffffffffffffffffffffffffffffffffffffffff166370a08231306040518263ffffffff1660e01b815260040161017491906106c8565b602060405180830381865afa158015610191573d6000803e3d6000fd5b505050506040513d601f19601f820116820180604052508101906101b591906106f8565b10156101c057600080fd5b60008054906101000a900473ffffffffffffffffffffffffffffffffffffffff1673ffffffffffffffffffffffffffffffffffffffff1663a9059cbb33836040518363ffffffff1660e01b815260040161021b929190610725565b6020604051808303816000875af115801561023a573d6000803e3d6000fd5b505050506040513d601f19601f8201168201806040525081019061025e9190610786565b61026757600080fd5b600360009054906101000a900473ffffffffffffffffffffffffffffffffffffffff1673ffffffffffffffffffffffffffffffffffffffff166108fc349081150290604051600060405180830381858888f193505050501580156102cf573d6000803e3d6000fd5b5080600260008282546102e291906107e2565b925050819055507f5e5e995ce3133561afceaa51a9a154d5db228cd7525d34df5185582c18d3df09338260405161031a929190610725565b60405180910390a150565b600360009054906101000a900473ffffffffffffffffffffffffffffffffffffffff1673ffffffffffffffffffffffffffffffffffffffff163373ffffffffffffffffffffffffffffffffffffffff161461037f57600080fd5b60008054906101000a900473ffffffffffffffffffffffffffffffffffffffff1673ffffffffffffffffffffffffffffffffffffffff1663a9059cbb600360009054906101000a900473ffffffffffffffffffffffffffffffffffffffff1660008054906101000a900473ffffffffffffffffffffffffffffffffffffffff1673ffffffffffffffffffffffffffffffffffffffff166370a08231306040518263ffffffff1660e01b815260040161043791906106c8565b602060405180830381865afa158015610454573d6000803e3d6000fd5b505050506040513d601f19601f8201168201806040525081019061047891906106f8565b6040518363ffffffff1660e01b8152600401610495929190610859565b6020604051808303816000875af11580156104b4573d6000803e3d6000fd5b505050506040513d601f19601f820116820180604052508101906104d89190610786565b50600360009054906101000a900473ffffffffffffffffffffffffffffffffffffffff1673ffffffffffffffffffffffffffffffffffffffff16ff5b60025481565b60015481565b60008054906101000a900473ffffffffffffffffffffffffffffffffffffffff1681565b60008082148061056c57508282838561055d9190610882565b92508261056a919061090b565b145b61057557600080fd5b92915050565b600080fd5b6000819050919050565b61059381610580565b811461059e57600080fd5b50565b6000813590506105b08161058a565b92915050565b6000602082840312156105cc576105cb61057b565b5b60006105da848285016105a1565b91505092915050565b6105ec81610580565b82525050565b600060208201905061060760008301846105e3565b92915050565b600073ffffffffffffffffffffffffffffffffffffffff82169050919050565b6000819050919050565b600061065261064d6106488461060d565b61062d565b61060d565b9050919050565b600061066482610637565b9050919050565b600061067682610659565b9050919050565b6106868161066b565b82525050565b60006020820190506106a1600083018461067d565b92915050565b60006106b28261060d565b9050919050565b6106c2816106a7565b82525050565b60006020820190506106dd60008301846106b9565b92915050565b6000815190506106f28161058a565b92915050565b60006020828403121561070e5761070d61057b565b5b600061071c848285016106e3565b91505092915050565b600060408201905061073a60008301856106b9565b61074760208301846105e3565b9392505050565b60008115159050919050565b6107638161074e565b811461076e57600080fd5b50565b6000815190506107808161075a565b92915050565b60006020828403121561079c5761079b61057b565b5b60006107aa84828501610771565b91505092915050565b7f4e487b7100000000000000000000000000000000000000000000000000000000600052601160045260246000fd5b60006107ed82610580565b91506107f883610580565b9250827fffffffffffffffffffffffffffffffffffffffffffffffffffffffffffffffff0382111561082d5761082c6107b3565b5b828201905092915050565b600061084382610659565b9050919050565b61085381610838565b82525050565b600060408201905061086e600083018561084a565b61087b60208301846105e3565b9392505050565b600061088d82610580565b915061089883610580565b9250817fffffffffffffffffffffffffffffffffffffffffffffffffffffffffffffffff04831182151516156108d1576108d06107b3565b5b828202905092915050565b7f4e487b7100000000000000000000000000000000000000000000000000000000600052601260045260246000fd5b600061091682610580565b915061092183610580565b925082610931576109306108dc565b5b82820490509291505056fea26469706673582212205244077e0a948fa31ea648b9acf49f164866709090ce118a3fc817c95388e51764736f6c634300080a0033",
  "immutableReferences": {},
  "source": "// SPDX-License-Identifier: MIT\r\npragma solidity^0.8.1;\r\n\r\nimport \"./ShoneToken.sol\";\r\n\r\ncontract ShoneTokenSale{\r\n    ShoneToken public tokenAddress;\r\n    uint256 public tokenPrice;\r\n    uint256 public tokenSold;\r\n    address payable admin;\r\n\r\n    event Sell(address _buyer, uint256 _noTokens);\r\n\r\n    constructor(ShoneToken _tokenAddress , uint256 _tokenPrice, address payable _admin){\r\n        admin = _admin;\r\n        tokenAddress = _tokenAddress;\r\n        tokenPrice = _tokenPrice;\r\n    }\r\n\r\n    function multiply(uint256 x, uint256 y) internal pure returns(uint256 z){\r\n        require(y==0 || (z = x * y)/ y ==x );\r\n    }\r\n\r\n    function buyToken(uint256 _numOfToken) public payable{\r\n        require(msg.value == multiply(_numOfToken, tokenPrice)); //make sure buyer is paying exact amount for the no. of tokens being purchased\r\n        //address(this) returns address of the contract\r\n        require(tokenAddress.balanceOf(address(this)) >= _numOfToken); //make sure the contract has enough tokens that is requested by the buyer\r\n        require(tokenAddress.transfer(msg.sender, _numOfToken));\r\n        admin.transfer(msg.value);\r\n        tokenSold += _numOfToken;\r\n        emit Sell(msg.sender, _numOfToken);\r\n    }\r\n\r\n    function endSale() public{\r\n        require(msg.sender == admin);\r\n        //transfer remaining tokens inside the contract to the admin\r\n        tokenAddress.transfer(admin, tokenAddress.balanceOf(address(this)));\r\n        selfdestruct(admin);\r\n    }\r\n}",
  "sourcePath": "C:\\Users\\shone\\OneDrive\\Documents\\Ethereum\\Programming\\Dapp University 10hr\\ERC-20\\token_sale\\contracts\\ShoneTokenSale.sol",
  "compiler": {
    "name": "solc",
    "version": "0.8.10+commit.fc410830.Emscripten.clang"
  },
  "schemaVersion": "3.4.3",
  "updatedAt": "2021-12-25T21:32:31.767Z",
  "networkType": "ethereum",
  "devdoc": {
    "kind": "dev",
    "methods": {},
    "version": 1
  },
  "userdoc": {
    "kind": "user",
    "methods": {},
    "version": 1
  }
}