{
  "contractName": "TokenSale",
  "abi": [
    {
      "inputs": [
        {
          "internalType": "contract ShoneToken",
          "name": "_tokenAddress",
          "type": "address"
        },
        {
          "internalType": "uint256",
          "name": "_tokenPrice",
          "type": "uint256"
        }
      ],
      "stateMutability": "nonpayable",
      "type": "constructor"
    },
    {
      "inputs": [],
      "name": "tokenAddress",
      "outputs": [
        {
          "internalType": "contract ShoneToken",
          "name": "",
          "type": "address"
        }
      ],
      "stateMutability": "view",
      "type": "function"
    },
    {
      "inputs": [],
      "name": "tokenPrice",
      "outputs": [
        {
          "internalType": "uint256",
          "name": "",
          "type": "uint256"
        }
      ],
      "stateMutability": "view",
      "type": "function"
    }
  ],
  "bytecode": "0x608060405234801561001057600080fd5b506040516103603803806103608339818101604052810190610032919061016c565b33600260006101000a81548173ffffffffffffffffffffffffffffffffffffffff021916908373ffffffffffffffffffffffffffffffffffffffff160217905550816000806101000a81548173ffffffffffffffffffffffffffffffffffffffff021916908373ffffffffffffffffffffffffffffffffffffffff1602179055508060018190555050506101ac565b600080fd5b600073ffffffffffffffffffffffffffffffffffffffff82169050919050565b60006100f1826100c6565b9050919050565b6000610103826100e6565b9050919050565b610113816100f8565b811461011e57600080fd5b50565b6000815190506101308161010a565b92915050565b6000819050919050565b61014981610136565b811461015457600080fd5b50565b60008151905061016681610140565b92915050565b60008060408385031215610183576101826100c1565b5b600061019185828601610121565b92505060206101a285828601610157565b9150509250929050565b6101a5806101bb6000396000f3fe608060405234801561001057600080fd5b50600436106100365760003560e01c80637ff9b5961461003b5780639d76ea5814610059575b600080fd5b610043610077565b60405161005091906100ba565b60405180910390f35b61006161007d565b60405161006e9190610154565b60405180910390f35b60015481565b60008054906101000a900473ffffffffffffffffffffffffffffffffffffffff1681565b6000819050919050565b6100b4816100a1565b82525050565b60006020820190506100cf60008301846100ab565b92915050565b600073ffffffffffffffffffffffffffffffffffffffff82169050919050565b6000819050919050565b600061011a610115610110846100d5565b6100f5565b6100d5565b9050919050565b600061012c826100ff565b9050919050565b600061013e82610121565b9050919050565b61014e81610133565b82525050565b60006020820190506101696000830184610145565b9291505056fea26469706673582212204337cd65e0bbd71e09bd216aacb1d83891ed1050445cc1821e93b7d7d4eddd7964736f6c634300080a0033",
  "immutableReferences": {},
  "source": "// SPDX-License-Identifier: MIT\r\npragma solidity^0.8.1;\r\n\r\nimport \"./ShoneToken.sol\";\r\n\r\ncontract TokenSale{\r\n    ShoneToken public tokenAddress;\r\n    uint256 public tokenPrice;\r\n    address admin;\r\n\r\n\r\n    constructor(ShoneToken _tokenAddress , uint256 _tokenPrice){\r\n        admin = msg.sender;\r\n        tokenAddress = _tokenAddress;\r\n        tokenPrice = _tokenPrice;\r\n    }\r\n}",
  "sourcePath": "C:\\Users\\shone\\OneDrive\\Documents\\Ethereum\\Programming\\Dapp University 10hr\\ERC-20\\token_sale\\contracts\\ShoneTokenSale.sol",
  "compiler": {
    "name": "solc",
    "version": "0.8.10+commit.fc410830.Emscripten.clang"
  },
  "schemaVersion": "3.4.3",
  "updatedAt": "2021-12-10T11:40:02.600Z",
  "devdoc": {
    "kind": "dev",
    "methods": {},
    "version": 1
  },
  "userdoc": {
    "kind": "user",
    "methods": {},
    "version": 1
  }
}